:100000000C942A000C9447000C9447000C94470071
:100010000C9447000C9447000C9447000C94470044
:100020000C9447000C9447000C9447000C94470034
:100030000C9447000C9447000C9447000C94470024
:100040000C9447000C9447000C9447000C94470014
:100050000C94470011241FBECFE5D8E0DEBFCDBF12
:1000600010E0A0E6B0E0EEE4FBE002C005900D92E7
:10007000AE3AB107D9F720E0AEEAB0E001C01D9278
:10008000AF3AB207E1F70E9495010C94A5050C94D4
:10009000000041E060E084E40E948B0241E061E006
:1000A00084E40E948B0241E062E084E40E948B02BF
:1000B00041E063E084E40E948B0240E064E084E479
:1000C0000E948B0240E065E084E40E948B0240E0E5
:1000D00066E084E40E948B0240E067E084E40E94D2
:1000E0008B0241E064E084E40E94DB0341E065E0D0
:1000F00084E40E94DB0341E066E084E40E94DB03C9
:1001000041E067E084E40E94DB030895FF920F93CF
:100110001F93CF93DF93CDB7DEB760970FB6F894F8
:10012000DEBF0FBECDBF80E1E0E6F0E0DE0111965C
:1001300001900D928A95E1F7FF24FA9400E03CC00B
:1001400041E060E084E40E94FB0241E061E084E47D
:100150000E94FB0241E062E084E40E94FB0241E075
:1001600063E084E40E94FB028FE39CE90197F1F7CE
:1001700000C0000040E0602F84E40E94FB0210E019
:1001800018C064E0610F84E40E946B03811110C009
:10019000E02FF0E0EE0FFF1FEE0FFF1F81E090E079
:1001A0008C0F9D1FE80FF91FE10FF11DF08003C0B8
:1001B0001F5F143030F30F5F043010F28F2D609604
:1001C0000FB6F894DEBF0FBECDBFDF91CF911F9168
:1001D0000F91FF90089541E060E082E40E94FB02ED
:1001E0008FE99FE00197F1F700C0000040E060E078
:1001F00082E40E94FB028FE99FE00197F1F700C0C3
:1002000000000895682F83E40E94C80340E061E085
:1002100082E40E94FB0240E063E082E40E94FB0271
:100220000E94EB00089541E060E083E40E948B02AD
:1002300041E061E083E40E948B0241E062E083E4FC
:100240000E948B0241E063E083E40E948B0241E064
:1002500064E083E40E948B0241E065E083E40E9455
:100260008B0241E066E083E40E948B0241E067E09C
:1002700083E40E948B0241E060E082E40E948B02F2
:1002800041E063E082E40E948B0241E061E082E4AD
:100290000E948B0240E063E082E40E94FB0288E35C
:1002A0000E94020181E00E9402018EE00E94020190
:1002B0008FE19EE40197F1F700C00000089581E00E
:1002C0000E9402010895682F83E40E94C80341E060
:1002D00061E082E40E94FB0240E063E082E40E946D
:1002E000FB020E94EB000895CF93DF93EC0109C05D
:1002F0008FE39CE90197F1F700C0000089910E940B
:10030000630188818111F4CFDF91CF91089581300D
:1003100019F48FE7860F06C0823019F48FEB860F31
:1003200001C080E80E940201089541E064E082E497
:100330000E948B0240E060E081E40E948B020E94F8
:1003400013010E9449000E946C0280E790E00E9425
:10035000740161E070E082E090E00E94870181E832
:1003600090E00E9474012FEF89E698E121508040CF
:100370009040E1F700C000000E945F018EE00E9403
:100380000201C0E0D0E00E945F018EE00E94020105
:100390008DE890E00E94740184E990E00E9474016D
:1003A0008FEF8093AE0004C00E9486008093AE0061
:1003B0008091AE008F3FC1F3813319F0823391F108
:1003C00073C081E00E9402018EE00E9402018DE96B
:1003D00090E00E94740161E070E082E090E00E9491
:1003E000870182EA90E00E9474018FEF8093AE0053
:1003F00004C00E9486008093AE008091AE008F3FC3
:10040000C1F3813319F0823339F04EC041E063E02B
:1004100082E40E94FB0248C040E063E082E40E9464
:10042000FB0242C081E00E9402018EE00E940201B4
:1004300088EA90E00E94740111C080E00E947C0272
:10044000BC0180E090E00E949B0420E030E040E8A6
:100450005EE30E9401050E946C04EB01209769F3A2
:100460009E01ADECBCEC0E9496058C01169507959B
:10047000169507951695079580E3800F0E946301F6
:10048000C801880F991F000F111F000F111F000FC7
:10049000111F080F191FCE01801B910B805D0E9458
:1004A000630183E40E946301C931D10530F041E06A
:1004B00064E082E40E94FB0205C040E064E082E464
:1004C0000E94FB022FEF81E19AE72150804090408B
:1004D000E1F700C0000057CF87B1806487B987B1CA
:1004E000806887B986B1846086B986B1826086B932
:1004F00086B1806886B9089586B1806486B93499DA
:10050000FECF86B1806186B924B185B190E0982F85
:100510008827822B0895823419F118F4813439F038
:1005200008958334B1F1843409F44CC00895413006
:1005300059F42AB381E090E002C0880F991F6A95B0
:10054000E2F7822B8ABB08952AB381E090E002C0D3
:10055000880F991F6A95E2F7809582238ABB0895D8
:10056000413059F427B381E090E002C0880F991F11
:100570006A95E2F7822B87BB089527B381E090E06C
:1005800002C0880F991F6A95E2F78095822387BB86
:100590000895413059F424B381E090E002C0880FFF
:1005A000991F6A95E2F7822B84BB089524B381E0FA
:1005B00090E002C0880F991F6A95E2F78095822328
:1005C00084BB0895413059F421B381E090E002C02A
:1005D000880F991F6A95E2F7822B81BB089521B39A
:1005E00081E090E002C0880F991F6A95E2F780953C
:1005F000822381BB0895823419F118F4813439F0D3
:1006000008958334B1F1843409F44CC00895413025
:1006100059F42BB381E090E002C0880F991F6A95CE
:10062000E2F7822B8BBB08952BB381E090E002C0F0
:10063000880F991F6A95E2F7809582238BBB0895F6
:10064000413059F428B381E090E002C0880F991F2F
:100650006A95E2F7822B88BB089528B381E090E089
:1006600002C0880F991F6A95E2F78095822388BBA4
:100670000895413059F425B381E090E002C0880F1D
:10068000991F6A95E2F7822B85BB089525B381E017
:1006900090E002C0880F991F6A95E2F78095822347
:1006A00085BB0895413059F422B381E090E002C047
:1006B000880F991F6A95E2F7822B82BB089522B3B7
:1006C00081E090E002C0880F991F6A95E2F780955B
:1006D000822382BB08958234E9F018F4813431F02A
:1006E00055C0833459F18434E9F150C049B381E0F5
:1006F00090E09C01062E02C0220F331F0A94E2F7FD
:10070000842F90E08223932302C0959587956A9564
:10071000E2F7089546B381E090E09C01062E02C006
:10072000220F331F0A94E2F7842F90E08223932351
:1007300002C0959587956A95E2F7089543B381E0E5
:1007400090E09C01062E02C0220F331F0A94E2F7AC
:10075000842F90E08223932302C0959587956A9514
:10076000E2F7089540B381E090E09C01062E02C0BC
:10077000220F331F0A94E2F7842F90E08223932301
:1007800002C0959587956A95E2F7089580E00895EF
:10079000823459F018F4813431F00895833439F0FB
:1007A000843439F008956BBB089568BB089565BB28
:1007B000089562BB0895823461F118F4813441F0E8
:1007C0000895833409F446C0843409F464C008955C
:1007D000413099F480B78B7F80BF2AB381E090E0ED
:1007E00002C0880F991F6A95E2F7982F909592237F
:1007F0009ABB9BB3892B8BBB08952BB381E090E010
:1008000002C0880F991F6A95E2F7809582238BBBFF
:100810000895413099F480B78B7F80BF27B381E082
:1008200090E002C0880F991F6A95E2F7982F909583
:10083000922397BB98B3892B88BB089528B381E096
:1008400090E002C0880F991F6A95E2F78095822395
:1008500088BB0895413099F480B78B7F80BF24B363
:1008600081E090E002C0880F991F6A95E2F7982F07
:100870009095922394BB95B3892B85BB089525B39E
:1008800081E090E002C0880F991F6A95E2F7809599
:10089000822385BB0895413099F480B78B7F80BF58
:1008A00021B381E090E002C0880F991F6A95E2F7BA
:1008B000982F9095922391BB92B3892B82BB089578
:1008C00022B381E090E002C0880F991F6A95E2F799
:1008D0008095822382BB08950E94E00488F09F5790
:1008E00098F0B92F9927B751B0F0E1F0660F771F54
:1008F000881F991F1AF0BA95C9F714C0B13091F04A
:100900000E94FA04B1E008950C94FA04672F782F3E
:100910008827B85F39F0B93FCCF38695779567950E
:10092000B395D9F73EF490958095709561957F4F7A
:100930008F4F9F4F0895E89409C097FB3EF4909520
:100940008095709561957F4F8F4F9F4F9923A9F0A8
:10095000F92F96E9BB279395F69587957795679537
:10096000B795F111F8CFFAF4BB0F11F460FF1BC07B
:100970006F5F7F4F8F4F9F4F16C0882311F096E90E
:1009800011C0772321F09EE8872F762F05C06623BC
:1009900071F096E8862F70E060E02AF09A95660F75
:1009A000771F881FDAF7880F9695879597F908952E
:1009B00057FD9058440F551F59F05F3F71F0479510
:1009C000880F97FB991F61F09F3F79F087950895F5
:1009D000121613061406551FF2CF4695F1DF08C014
:1009E000161617061806991FF1CF86957105610531
:1009F00008940895E894BB2766277727CB0197F9D9
:100A000008950E9414050C9485050E94770538F01E
:100A10000E947E0520F0952311F00C946E050C9435
:100A2000740511240C94FB040E94D80470F3959F64
:100A3000C1F3950F50E0551F629FF001729FBB27D5
:100A4000F00DB11D639FAA27F00DB11DAA1F649F71
:100A50006627B00DA11D661F829F2227B00DA11D24
:100A6000621F739FB00DA11D621F839FA00D611DAA
:100A7000221F749F3327A00D611D231F849F600DCB
:100A8000211D822F762F6A2F11249F5750409AF0F4
:100A9000F1F088234AF0EE0FFF1FBB1F661F771F80
:100AA000881F91505040A9F79E3F510580F00C944B
:100AB0006E050C94FB045F3FE4F3983ED4F38695F7
:100AC00077956795B795F795E7959F5FC1F7FE2BEB
:100AD000880F911D9695879597F9089597F99F67C7
:100AE00080E870E060E008959FEF80EC08950024B6
:100AF0000A941616170618060906089500240A9483
:100B000012161306140605060895092E0394000C08
:100B100011F4882352F0BB0F40F4BF2B11F460FF97
:100B200004C06F5F7F4F8F4F9F4F0895A29FB0010A
:100B3000B39FC001A39F700D811D1124911DB29F11
:0E0B4000700D811D1124911D0895F894FFCFB2
:100B4E003738392F3435362A3132332D41303D2B5B
:100B5E0057656C636F6D6520746F20736D61727471
:100B6E0000686F6D652073797374656D00313A4C52
:100B7E00414D50002020323A54656D7000313A4F8D
:0E0B8E004E00323A4F46460054656D703D00F1
:00000001FF
